:020000040000fa
:080000000002040000000000f2
:020000040000fa
:100008009a0200009a0200009a0200009a02000078
:100018009a0200009a0200009a0200009a02000068
:100028009a0200009a0200009a0200009a02000058
:100038009a0200009a0200009a0200009a02000048
:100048009a0200009a0200009a020000ce06000000
:100058009a0200009a0200009a0200009a02000028
:100068009a0200009a0200009a0200009a02000018
:100078009a0200009a0200009a0200009a02000008
:100088009a0200009a0200009a0200009a020000f8
:100098009a0200009a0200009a0200009a020000e8
:1000a8009a0200009a0200009a0200009a020000d8
:1000b8009a0200009a0200009a0200009a020000c8
:1000c8009a0200009a0200009a0200009a020000b8
:1000d8009a0200009a0200009a0200009a020000a8
:1000e8009a0200009a0200009a0200009a02000098
:1000f8009a0200009a0200009a0200009a02000088
:100108009a0200009a0200009a0200009a02000077
:100118009a0200009a0200009a0200009a02000067
:100128009a0200009a0200009a0200009a02000057
:100138009a0200009a0200009a0200009a02000047
:100148009a0200009a0200009a0200009a02000037
:100158009a0200009a0200009a0200009a02000027
:100168009a0200009a0200009a0200009a02000017
:100178009a0200009a0200009a0200009a02000007
:100188009a0200009a0200009a0200009a020000f7
:100198009a0200009a0200009a0200009a020000e7
:1001a8009a0200009a0200009a0200009a020000d7
:1001b8009a0200009a0200009a0200009a020000c7
:1001c8009a0200009a0200009a0200009a020000b7
:1001d8009a0200009a0200009a0200009a020000a7
:1001e8009a0200009a0200009a0200009a02000097
:0801f8009a0200009a020000c7
:020000040000fa
:100208009a0200009a0200009a0200009a02000076
:100218009a0200009a0200009a0200009a02000066
:100228009a0200009a0200009a0200009a02000056
:100238009a0200009a0200009a0200009a02000046
:100248009a0200009a0200009a020000ce060000fe
:100258009a0200009a0200009a0200009a02000026
:100268009a0200009a0200009a0200009a02000016
:100278009a0200009a0200009a0200009a02000006
:100288009a0200009a0200009a0200009a020000f6
:100298009a0200009a0200009a0200009a020000e6
:1002a8009a0200009a0200009a0200009a020000d6
:1002b8009a0200009a0200009a0200009a020000c6
:1002c8009a0200009a0200009a0200009a020000b6
:1002d8009a0200009a0200009a0200009a020000a6
:1002e8009a0200009a0200009a0200009a02000096
:1002f8009a0200009a0200009a0200009a02000086
:100308009a0200009a0200009a0200009a02000075
:100318009a0200009a0200009a0200009a02000065
:100328009a0200009a0200009a0200009a02000055
:100338009a0200009a0200009a0200009a02000045
:100348009a0200009a0200009a0200009a02000035
:100358009a0200009a0200009a0200009a02000025
:100368009a0200009a0200009a0200009a02000015
:100378009a0200009a0200009a0200009a02000005
:100388009a0200009a0200009a0200009a020000f5
:100398009a0200009a0200009a0200009a020000e5
:1003a8009a0200009a0200009a0200009a020000d5
:1003b8009a0200009a0200009a0200009a020000c5
:1003c8009a0200009a0200009a0200009a020000b5
:1003d8009a0200009a0200009a0200009a020000a5
:1003e8009a0200009a0200009a0200009a02000095
:0803f8009a0200009a020000c5
:020000040000fa
:10040000ef8520000e7f22000e0188000000000012
:10041000000020000000e000020032000001200087
:10042000200288000c00070040b2200001002000dc
:1004300011000700000020000000e0000200320070
:100440000000020000000000e60a020000000000b8
:100450000040da000000fe004440a9000000200037
:100460000000e0000300320000002000a00188002e
:100470004440a80000000600910188008000780038
:100480000000eb0015003700e280400032a0b4000d
:100490009101ba00e280400032a0b4009102ba009b
:1004a000e280400032a0b4000002eb00472bde00e7
:1004b000f507b200602ce10004003a000059eb009f
:1004c0008301e900fdff3e00040037006128e100e0
:1004d000010032000082eb00040007001101ba00a5
:1004e0000200e000e8ff3a00000006003159ba00bf
:1004f0008301e9000c0032002159ba008301e900b0
:10050000080032000400e00003003a00e2804000ee
:1005100032a0b400f5ff370011d9ba008301e90019
:10052000faff3a008100e800e180400032a0b40008
:10053000000006000040da000000fe000000fa00a3
:1005400021e2a9009560a9009580a9008560a90015
:100550008580a9000080fa00000006000200fa0071
:10056000000f78008560a9008580a9001e02780030
:10057000044278006742620067426200674262009c
:100580000482fb00670262004c22dd004605800009
:10059000f5ff28008502630005027200440588000b
:1005a000040720001e0262004422de00044278009c
:1005b000674262000482fb00670262005605800009
:1005c00085ff2f0085026300050272005405880034
:1005d0009e027800688262004322de0004427800b6
:1005e000614262000482fb00610262004b22dd0076
:1005f000a6048000f57f2f008502630005027200cb
:10060000a4048800040820001e0262004722de00c5
:1006100004427800614262000482fb0061026200d1
:100620004c22dd00a6048000f5ff2e008502630049
:1006300005027200a40488000080fa000000060091
:100640000800fa0010079800210798003207980068
:100650003e029000441188001e02900004118800a0
:100660002e0290001411880002003700341180001f
:10067000044f78001411800061026200e00f520004
:10068000faff3a008560a9000080fa000000060029
:100690000400fa00100798001e029000040f780072
:1006a0000411800066026200e60f52001e003a004c
:1006b0000c0037000000000015118000042020000d
:1006c00004826200e00f5200fbff3a001e0290001d
:1006d00014027800241188001e0290000482e800b1
:1006e000140798001e02900014027800e00f5200d8
:1006f000f0ff3a00110037000000000015118000e3
:100700000420200004826200e00f5200fbff3a0048
:100710001e027800144278000402fb0024118800b5
:100720001e0fe80001003700000000001e027800e4
:1007300014427800e04f5200efff3a000080fa00c8
:10074000000006000000fa0004118000660262004a
:10075000e60f520002003a00341180000300370017
:1007600035118000f40f200004826200040078003c
:100770000080fa000000060003f0a200889fbe007f
:100780008a9fbe008c1f7800c3000700ca00330098
:100790006450e1004f0032006420e100520032005a
:1007a00003826c0007003b000905d0000306d0005f
:1007b000820f54000c065d00020039000200320076
:1007c00089017800030678008582550004003d0009
:1007d0000003fd008103fd008502ea008b854200d5
:1007e000840f720002003b0060001000e0801800df
:1007f0006011b8000005eb007a28e1000a0039001a
:1008000006007800c75ddd00f707b200878075003d
:100810002d003700828171000a01780061056000b7
:100820008180d1000080d3008502e900f9ff3b0000
:10083000060440008784480002003b006004140066
:10084000e0841c000988a300070032008a8171003f
:1008500082817100610164008904d1000884d300a1
:100860008b05e800170037000978a30013003a0051
:100870000b00e000130034008b05e900080444007d
:1008800089844c000a4474000978a3000d003a00e2
:100890000b00e000070034008b05e9000804440069
:1008a00089844c0001003a000b0020000978a30065
:1008b000f7ff32000001eb00020037008281710077
:1008c0000a0178004e0007000cf0a70001f0a0001c
:1008d000820037006420e10002003a00838f6c0040
:1008e000820033000801be000200be007b0037001a
:1008f000889fbe008a9fbe008c1f7800660007009c
:100900006d00330003866c006450e1002e0032005d
:100910006420e100330032006150e1002f0032001a
:100920006120e1003100320085855500eb07b00001
:1009300009002000080420000500370008044400d6
:1009400089844c000a0031000603430087834b0072
:100950000001530081815b00f8ff33000203be00f9
:100960000800a0000804440089844c00f6ff390008
:10097000c639dd008301730001003200130020003e
:100980008904d1000884d3000998a300050032002f
:100990000800a7000300a0008904d1000884d30048
:1009a0008b05e8008904d1000884d3000001eb0026
:1009b0000281d2001200070001f0a1000cf0a70094
:1009c00001f0a000450037006420e100470032003c
:1009d0000801be000200be00f7ff37006120e10001
:1009e000420032006000b800f3ff37000000200032
:1009f00001f82700f0ff37006011b80072003700df
:100a000081002000618055000b003d000b0020009c
:100a100061fe2f000100e1001d00340082817100a1
:100a2000610164008904d1000884d3000000e8005b
:100a3000faff3a00710020006100640003007000ba
:100a4000020060000900320061044400e0844c00b0
:100a50000988a500050032008b05e8006808e10060
:100a600002003a008904d1000884d300f20f20006c
:100a70000258e10005003d00c75ddd00f907b20046
:100a80008980750008007800000006000bf8270038
:100a90008b007800000005000004be00790007000c
:100aa0000003be000405be000200be007500070082
:100ab000844f7500000006000200be006450e10093
:100ac000050036006420e100020036000968a3003a
:100ad00001003a000800be000160a0004f06780047
:100ae0004f05be004f04be0000000600f0ff2f00bf
:100af000f1ff2700f9ff3700889fbe008a9fbe00e4
:100b00008c1f7800e4ff0700ebff330003866c00c6
:100b10006450e100240032006420e100270032002c
:100b20006150e100220032006120e100210032002a
:100b30008b854200eb07b1000134b800003ab800e1
:100b40000804420089844a00013ab8000030b80025
:100b50008880400009014a00040033000000400082
:100b600081804800020149008b05e900c909dd00c8
:100b7000830170000100320013002000c814de0061
:100b80004814dd004709de001200b200c808de008c
:100b9000088470009aff070001f0a1000cf0a70084
:100ba00001f0a000cdff37006120e100cfff32004f
:100bb0000801be000200be00f7ff37006150e100ef
:100bc000fcff3a00c9ff3700889fbe008a9fbe0025
:100bd000008270000402710004827100260032005d
:100be0000004be000200be006011b8006b092000c6
:100bf000950220000182cf000a0039000541b100b2
:100c00000082cf00070039000541b1000982cf0002
:100c1000040039000541b1000882cf00010039000d
:100c20000541b10005425200120032000a003b00ab
:100c300082817100610164008100d1000080d300d5
:100c40008984d3000884d3008b05e8000442e800bf
:100c5000f7ff3a00070037000804440089844c007d
:100c600000004800818048008b05e9000442e9004b
:100c7000f9ff3a0062ff07004f05be004f04be00b7
:100c800000000600c70ade00f107b200f50fb2004f
:100c900008003200e1cf4200020032000170a000e3
:100ca00024000500810f70000100320004080500d7
:100cb00044000500810f700002003a001400050096
:100cc0008502e9000000400081c04800fcff3b00b5
:080cd0000170a00024000500e2
:020000040000fa
:100cd8000000fa000042eb00044378002580200061
:100ce800864a78000002eb00044088000042eb00ce
:100cf8000443780025852000864a78000200070012
:100d08000080fa00000006000400fa002535800083
:100d180004fe2f00048262000410a000243588001d
:100d280015368000f40f2e00848262000430200003
:100d38000502720014368800fefd070004c02c006e
:100d4800040f7800d4f528001407980082002000ca
:100d58009e0090001e00780037fe0700f0f72f0075
:100d6800fcfd07009560a8000080fa00000006005e
:100d78000000fa009560a900eefd07000080fa0067
:100d8800000006000000fa00f9ff07000080fa00e2
:100d9800000006003600f800809fbe00829fbe005b
:100da800849fbe00869fbe003400f800000020002b
:100db800a00188000200fa008560a9005ffe070014
:100dc80000027800044f78001e40780008000700f1
:100dd8000080fa003400f9004f03be004f02be0045
:100de8004f01be004f00be003600f900004006006b
:100df8000200fa00004f7800248520001442780091
:100e0800e04f520022003a001e427800ed4f520097
:100e1800030032001e427800ea4f520008003a00f0
:100e280004408000e00f52001b00340014c0b300df
:100e38000443780025852000864a78001900370089
:100e4800044080008402e800f4042000848f5200eb
:100e580013003c00054080002480200004824200ea
:100e68001e4a7800044080008402e80024802000a4
:100e7800048242008042eb00054a7800044080006a
:100e88000402e80004408800000000000500370064
:100e980000000000030037000000000001003700d8
:100ea800000000000080fa00000006001000fa00b0
:100eb80060079800710798000002eb00040f7800a3
:100ec8000002eb00140798006e0290008042eb00cd
:100ed800054a78000082eb00540798000e0037009e
:100ee800044080009e029000848f5200040032006b
:100ef8000002eb00040f78000440800014079800fb
:100f08002485200014427800e04f520007003a0080
:100f1800480007001e0fe800540920009e027800d0
:100f2800848f5200eeff34000100370000000000fb
:100f38002485200014427800e04f52002700320038
:100f48007e0290000402e900140798000540800022
:100f58001e029000848f520002003d000540800070
:100f6800150798000002eb00240798006e03900014
:100f78003607980024802000440798000d003700a9
:100f88004e029000944278003e029000054a780094
:100f98003e0290000402e800340798004e029000d8
:100fa8000402e800440798002e0290000402e800ba
:100fb80024079800ae0290001e029000848f520011
:100fc800efff35003e0290008042eb00054a7800b2
:100fd8001e0290005407980001003700000000002e
:100fe8000042eb000443780025802000864a780000
:100ff8000002eb00044088000042eb000443780044
:1010080025852000864a78005e029000040078005a
:101018000080fa00000006000200fa00000f7800c5
:101028001e0278000400780097fd07000080fa008f
:10103800000006000000fa0000202e0041002000f9
:10104800710107000080fa00000006000000fa00a5
:101058000042eb000443780025802000864a78008f
:101068000002eb00044088000042eb0004437800d3
:1010780025852000864a78000080fa0000000600d6
:101088000800fa0020079800310798003e029000f7
:10109800a442880000982a00310020005a01070065
:1010a8000e82e8008400780000c0eb0018000700fa
:1010b80000027800040f78001e027800e00f52004a
:1010c8000f003a009e02900004002100848f520015
:1010d80009003a000042eb00244798000042eb0068
:1010e800344798000e82e8008400780020c0b300de
:1010f8003a0007000200370064002000040f78005f
:101108001e027800040078000080fa000000060043
:101118000600fa0020479800210798000002eb001b
:10112800040f7800ed000700a44280000442780014
:101138000442420004407800030107002e42900058
:1011480004407800000107002e429000e04f520052
:10115800030032002e429000e14f520003003a0093
:1011680000582b001100200027010700e4000700a9
:10117800a442800004427800044242000442e8008d
:1011880004407800f0000700e60007002e029000f7
:101198000402e80024079800ff0007000002780016
:1011a800844278002e029000054a78002e029000b2
:1011b8000402e90024079800f700070000027800fd
:1011c800844278002e029000054a78001e027800ba
:1011d800040078000080fa00000006000800fa0009
:1011e80040479800310798000002eb001407980068
:1011f800ba000700a442800004427800044242007a
:1012080004407800d00007004e4290000440780067
:10121800cd0007004e42900004407800ca00070045
:101228000002eb00040f7800080037003e0290002f
:101238001442780004407800c30007003e02900082
:101248000402e800340798001e0fe8001e02780028
:10125800e10f5200f5ff3400b20007001e029000b3
:10126800040078000080fa00000006000400fa007c
:101278000e82e8008400780010c0b300a4ff0700c5
:1012880000027800040f78001e027800e00f520078
:1012980038003a001e029000050020000400be003d
:1012a800d3fd07000002be000200200003782400de
:1012b8000400be008cfd07000002be00b442880096
:1012c800c5428800b4428000c54280000200200068
:1012d800832c24000400be0005fe07000002be00a7
:1012e800b4428800c54288000e82e8008400780075
:1012f8000040eb0086ff070000027800040f78002a
:101308001e027800e00f52001a003a001e029000f8
:10131800050020000400be00b5fd07000002be0065
:1013280002002000037824000400be006efd0700c0
:101338000002be00d4428800e5428800d442800002
:10134800e542800002002000533224000400be0061
:10135800e7fd07000002be0002002000032224006f
:101368000400be0002fd07000002be00d44288004f
:10137800e54288001e027800040078000080fa0028
:10138800000006000000fa00c4ff2f00641988005e
:10139800c802a800c822a900cc22a800c042a900ff
:1013a800c442a800c842a800c862a900c9e2a800af
:1013b800c9c2a900c062a900c462a900c8a2a90044
:1013c800cca2a800c9a2a800c962a800c942a90065
:1013d800c9a2a900cda2a900c8e2a900453580008c
:1013e80004fe2f0004826200b400b3004435880074
:1013f8005536800004fe2f00048262000430a000ed
:101408005436880035368000f40f2e00848262003e
:101418000470200005027200343688000080fa004b
:10142800000006000000fa00cd22a800c922a90089
:10143800c902a8000080fa00000006000200fa00b5
:10144800004f78009e42780061c262000482fb006f
:10145800610262004922dd0066168000f5df2f0078
:101468008502630005027200641688000080fa0095
:10147800000006000000fa00551680000410200045
:101488000482620004f0a7000402ea000402e900f2
:101498004f22de0004427800044078000080fa0001
:1014a800000006000000fa000042eb00044078004b
:1014b8000080fa00000006000000fa00d4092000ad
:1014c800241088000002eb00641088000400280043
:1014d800341088000080fa00000006000000fa00be
:1014e8000602a800000000003410800061026200bb
:1014f800e00f5200fcff3a000080fa0000000600ee
:101508000000fa000622a800000000003410800045
:1015180062026200e00f5200fcff3a000080fa000d
:10152800000006000000fa000642a80000000000c3
:101538003410800064026200e00f5200fcff3a00a1
:101548000080fa00000006000400fa002047980016
:101558002e4290000482fb00141088000000000056
:10156800451080000400240004826200e00f52004d
:10157800fbff3a000042eb00044f780001003700ff
:101588001e4fe8001e427800f34f5200fcff340063
:101598000080fa00000006000000fa000662a800b9
:1015a800000000003410800068026200e00f520062
:1015b800fcff3a0004108000040078000080fa0064
:1015c800000006000200fa00240007006dff070073
:1015d800bffd0700b8ff070001042000000021003c
:1015e800a7fe070000027800040f780000c026005c
:1015f800c12d2000040007001cff0700000278002e
:08160800040f7800fcff37001d
:020000040000fa
:10161000f03fb1000180b10006003500ee03090083
:1016200000000000403fb1000180b100fbff3d0021
:101630001000b000203fb00002003500008009001b
:0816400000000000000006009c
:020000040000fa
:10164800540800000a000000000000000008000024
:0c16580054000000000000000000000032
:020000040000fa
:101664000000fa000002eb00243a88000080fa002f
:04167400000006006c
:020000040000fa
:020000040001f9
:0457f000ffff0000b7
:020000040000fa
:020000040001f9
:0457f8008f99000085
:020000040000fa
:020000040001f9
:0457fc007f3f0000eb
:00000001FF
